:030000000205A74F
:0C05A700787FE4F6D8FD75816F0205EE48
:09084A0032333A31363A353800F8
:1006BF00083B0001020304050607101A3F065B4FB3
:1006CF00666D7D077F6F777C395E7971023300012C
:1006DF00022E0001022A0001022C0001026700080D
:1006EF001249000A0014001E0028003C0050007838
:1006FF0000A000C8025E00000210000004370000D6
:10070F00000002140000025C000002180000023515
:10071F000000024400000212000002160000024610
:09072F0000000231000001480045
:0607CA00C296C295D29612
:1007D000C2950000E4FEEF1392CC0000D295000019
:0A07E000C295EFC313FF0EBE08EC34
:0107EA0022EC
:10000E000000E4FEEFC313FF30CC03430780D2950C
:0A001E000000C29500000EBE08EAC3
:0100280022B5
:0A082B001207CA12000ED295C29601
:0108350022A0
:0D0812001207CAAF051207D0D295C2962278
:10046C007F8112082BEF5470C4540F75F00AA4FE50
:10047C00EF540F2EF5697F8312082BEF5470C45480
:10048C000F75F00AA4FEEF540F2EF56A7F85120843
:10049C002BEF5470C4540F75F00AA4FEEF540F2EBA
:1004AC00F56B7F8712082BEF5470C4540F75F00A4C
:1004BC00A4FEEF540F2EF56C7F8B12082BEF5470AB
:1004CC00C4540F75F00AA4FEEF540F2EF56D7F89FE
:1004DC0012082BEF5470C4540F75F00AA4FEEF549D
:1004EC000F2EF56E7F8D12082BEF5470C4540F75C0
:1004FC00F00AA4FEEF540F2EF56F7B007A00796999
:01050C0022CC
:1006330090084AE493FF120781EFC454F0FEC0060A
:1006430090084BE493FF120781D0E02FF5699008DF
:100653004DE493FF120781EFC454F0FEC0069008E7
:100663004EE493FF120781D0E02FF56A900850E41F
:1006730093FF120781EFC454F0FEC006900851E4C3
:1006830093FF120781D0E02FFCE4FD7F8E12081246
:10069300AD047F80120812AD6A7F82120812AD6921
:1006A3007F841208127F8112082BEF547FF530FDEF
:0C06B3007F801208127D807F8E020812EA
:1007EB00E4FD7F8E1208127DA97F901208127D8086
:0507FB007F8E020812D0
:0A08360000007F067E5DDEFEDFFCA1
:010840002295
:080841007F6C7E91DEFEDFFCFE
:01084900228C
:1007A80075B0EF7596FFE4F5957594FFF593C2A3C0
:1007B800758911D2AFD2AD758C63758ABFD28CD2D0
:0207C800A92264
:0C081F00E4F5BDF5BE75BC8C7597202279
:10073900AE14AF157C037DE81201247E007F64CFDF
:10074900CDCFCECCCE1201248E188F19AE14AF1591
:100759007C007D641201247E007F0ACFCDCFCECCF0
:10076900CE1201248E358F36AE14AF157C007D0A6A
:080779001201248C448D45227D
:03000B00020800E8
:10080000C0E0758C63758ABFC2AF12081FD2AFD02B
:02081000E032D4
:03002B000203C00D
:1003C000C0E0C0F0C083C082C0D075D0080511E580
:1003D0001170020510C2AFD394D0E5109407404DC0
:1003E000E55E13FEE55F13FFEF253AFFEE3539FEBC
:1003F000E43538FDE43537FCC00EC00FAE5EAF5FAC
:10040000AB0FAA0EE4F9F8D00FD00E1201B58E147E
:100410008F15753A00753900753800753700755EAF
:1004200000755F00751000751100120739055FE552
:100430005F7002055EAFBDEFFEADBE7C00E42DFF38
:10044000EC3EFEE4FDE53A2FF53AE5393EF539EDAF
:100450003538F538EC3537F53753BCEF43BC08D2A7
:0C046000AFD0D0D082D083D0F0D0E032FA
:10024700E55D25E02449F8E6FE08E6FFC3E5159FCE
:10025700E5149E4010E5159FE5149E5008855C5CEB
:10026700855D5D801BC3E5159FE5149E500AE55D1E
:10027700155D700C155C8008055DE55D7002055C19
:10028700E55DAE5C7802C333CE33CED8F9FFC374D5
:100297002C9FF568E49EF567055B0532E532700231
:1002A7000531646445317007F531F532754801E56C
:1002B7005BB56806E4B56702F55BC2A3E4F580E5C4
:1002C7003464014533703DE55BC394085036E52F30
:1002D7006401452E702E743B255BF8E6F5A0E55BBF
:1002E70014601724FE601514601424FE6012146055
:1002F7001124076003020383805C805E8060806254
:100307008064806CE53445337077E51364014512EA
:10031700706FE52F6401452E70670547E54770024A
:100327000546B4D00EE546B40709E4F546F547F5AA
:1003370012F513E55B5407F543243BF8E6F5A0E512
:100347004314601624FE601614601724FE60171409
:10035700601E24077026E562800EE5628014E56161
:100367008006E561800CE56075F00A84241A8042F6
:10037700E56075F00A84741A25F080367580408030
:1003870035E52F452E702FE55BC394035028743B4A
:10039700255BF8E6F5A0E55B14600D1460102402F8
:1003A7007014741A2519800A741A25368004741A71
:0903B7002545F8E6F58002083640
:10050D001207A87F8112082BEF30E7031206331272
:10051D0007EB120247E548B4011312046C78607CB6
:10052D00007D007E007F071200FEE4F54820B22515
:10053D00E52B452A702412084120B21EE5344533BF
:10054D0070047F0180027F007533008F34752A009F
:10055D00752B018005E4F52AF52B20B325E52D45F6
:10056D002C702412084120B31EE52F452E70047FF8
:10057D000180027F00752E008F2F752C00752D01C7
:10058D008005E4F52CF52DE53445337085D2A42096
:0A059D00A480F51275130102051F7A
:1005B30002050DE493A3F8E493A34003F68001F24C
:1005C30008DFF48029E493A3F85407240CC8C33349
:1005D300C4540F4420C8834004F456800146F6DF18
:1005E300E4800B01020408102040809006BFE47EE3
:1005F300019360BCA3FF543F30E509541FFEE4930D
:10060300A360010ECF54C025E060A840B8E493A3D3
:10061300FAE493A3F8E493A3C8C582C8CAC583CAFE
:10062300F0A3C8C582C8CAC583CADFE9DEE780BEB6
:0107380000C0
:10002E00E709F608DFFA8046E709F208DFFA803EB4
:10003E0088828C83E709F0A3DFFA8032E309F608A1
:10004E00DFFA8078E309F208DFFA807088828C8309
:10005E00E309F0A3DFFA806489828A83E0A3F608BD
:10006E00DFFA805889828A83E0A3F208DFFA804C97
:10007E0080D280FA80C680D4806980F2803380106E
:10008E0080A680EA809A80A880DA80E280CA8033D7
:10009E0089828A83ECFAE493A3C8C582C8CCC5834F
:1000AE00CCF0A3C8C582C8CCC583CCDFE9DEE7801F
:1000BE000D89828A83E493A3F608DFF9ECFAA9F09E
:1000CE00EDFB2289828A83ECFAE0A3C8C582C8CCF4
:1000DE00C583CCF0A3C8C582C8CCC583CCDFEADE0D
:1000EE00E880DB89828A83E493A3F208DFF980CC6F
:1000FE0088F0EF60010E4E60C388F0ED2402B40468
:10010E000050B9F582EB2402B4040050AF2323450E
:06011E00822390007E73B5
:10012400BC000BBE0029EF8DF084FFADF022E4CCBF
:10013400F875F008EF2FFFEE33FEEC33FCEE9DEC88
:10014400984005FCEE9DFE0FD5F0E9E4CEFD22EDCE
:10015400F8F5F0EE8420D21CFEADF075F008EF2F18
:10016400FFED33FD4007985006D5F0F222C398FD09
:050174000FD5F0EA22A6
:1001790075F008758200EF2FFFEE33FECD33CDCC3D
:1001890033CCC58233C5829BED9AEC99E5829840C0
:100199000CF582EE9BFEED9AFDEC99FC0FD5F0D69D
:1001A900E4CEFBE4CDFAE4CCF9A88222B800C1B9C7
:1001B9000059BA002DEC8BF084CFCECDFCE5F0CB05
:1001C900F97818EF2FFFEE33FEED33FDEC33FCEB3E
:1001D90033FB10D703994004EB99FB0FD8E5E4F9F9
:1001E900FA227818EF2FFFEE33FEED33FDEC33FCE6
:1001F900C933C910D7059BE99A4007EC9BFCE99ADA
:10020900F90FD8E0E4C9FAE4CCFB2275F010EF2F1E
:10021900FFEE33FEED33FDCC33CCC833C810D7071E
:100229009BEC9AE899400AED9BFDEC9AFCE899F859
:0E0239000FD5F0DAE4CDFBE4CCFAE4C8F922EC
:10078100EF7E0024D0B40A00401B24F9B40A0040D3
:1007910011B41000400F24E0B40A004005B4100069
:0707A100400374FFFEFF227C
:00000001FF
