:030000000205E90D
:0C05E900787FE4F6D8FD75816F020630C3
:0908A30031303A32343A323800A7
:10070100083B0001020304050607101A3F065B4F70
:10071100666D7D077F6F777C395E797102330001E9
:10072100022E0001022A0001022C000102670008CA
:100731001249000A0014001E0028003C00500078F5
:1007410000A000C8025E0000021000000437000093
:10075100000002140000025C0000021800000235D3
:1007610000000244000002120000021600000246CE
:0907710000000231000001480003
:06081600C296C295D296C5
:10081C00C2950000E4FEEF1392CC0000D2950000CC
:0A082C00C295EFC313FF0EBE08ECE7
:01083600229F
:100837000000E4FEEFC313FF30CC03430780D295DB
:0A0847000000C29500000EBE08EA92
:010851002284
:0A087900120816120837D295C29635
:010883002252
:0D000E00120816AF0512081CD295C29622EA
:1004AE007F81120879EF5470C4540F75F00AA4FEC0
:1004BE00EF540F2EF5697F83120879EF5470C454F0
:1004CE000F75F00AA4FEEF540F2EF56A7F85120801
:1004DE0079EF5470C4540F75F00AA4FEEF540F2E2A
:1004EE00F56B7F87120879EF5470C4540F75F00ABC
:1004FE00A4FEEF540F2EF56C7F8B120879EF54701B
:10050E00C4540F75F00AA4FEEF540F2EF56D7F89BB
:10051E00120879EF5470C4540F75F00AA4FEEF540C
:10052E000F2EF56E7F8D120879EF5470C4540F752F
:10053E00F00AA4FEEF540F2EF56F7B007A00796956
:01054E00228A
:100675009008A3E493FF1207EFEFC454F0FEC00601
:100685009008A4E493FF1207EFD0E02FF5699008D6
:10069500A6E493FF1207EFEFC454F0FEC0069008DE
:1006A500A7E493FF1207EFD0E02FF56A9008A9E4BD
:1006B50093FF1207EFEFC454F0FEC0069008AAE4BA
:1006C50093FF1207EFD0E02FFCE4FD7F8E12000EA2
:1006D500AD047F8012000EAD6A7F8212000EAD69F7
:1006E5007F8412000E7F81120879EF547FF530FD6B
:0C06F5007F8012000E7D807F8E02000EC0
:10085200E4FD7F8E12000E7DA97F9012000E7D8036
:050862007F8E02000E74
:0A08840000007F037E23DEFEDFFC90
:01088E002247
:08089A007F6C7E91DEFEDFFCA5
:0108A2002233
:1007C30075B0EF7596FFE4F5957594FFF593C2A3A5
:1007D300758911D2AFD2AD758C63758ABFD28C7512
:0C07E3008D3C758BAFD28ED2A9D2AB2218
:0C001E00E4F5BDF5BE75BC8C7597202282
:10077B00AE14AF157C037DE81201247E007F64CF9D
:10078B00CDCFCECCCE1201248E188F19AE14AF154F
:10079B007C007D641201247E007F0ACFCDCFCECCAE
:1007AB00CE1201248E358F36AE14AF157C007D0A28
:0807BB001201248C448D45223B
:03000B0002086781
:10086700C0E0758C63758ABFC2AF12001ED2AFD0CD
:02087700E0326D
:03001B0002088F49
:0B088F00758D3C758BAFC2AFD2AF324D
:03002B0002024787
:10024700C0E0C0F0C083C082C0D075D0080511E5FA
:100257001170020510C2AFD394D0E5109407500374
:1002670002034FE55E13FEE55F13FFEF253AFFEE4E
:100277003539FEE43538FDE43537FCC00EC00FAE26
:100287005EAF5FAB0FAA0EE4F9F8D00FD00E1201E4
:10029700B58E148F15753A007539007538007537A6
:1002A70000755E00755F0075100075110012077B01
:1002B700E55D25E02449F8E6FE08E6FFC3E5159F5E
:1002C700E5149E4010E5159FE5149E5008855C5C7B
:1002D700855D5D8073C3E5159FE5149E5036E55D2A
:1002E700155D7002155CE55D9400E55C94005006B1
:1002F700755C00755D0074042568F568E43567F57D
:1003070067D3E568942CE5679400403C75670075F2
:10031700682C8034055DE55D7002055CC39408E5D3
:100327005C94004006755C00755D0874FC2568F5F3
:100337006874FF3567F567C3E5689408E567940057
:100347005006756700756808055FE55F7002055E12
:10035700AFBDEFFEADBE7C00E42DFFEC3EFEE4FD3D
:10036700E53A2FF53AE5393EF539ED3538F538EC0C
:100377003537F53753BCEF43BC08D2AFD0D0D08266
:07038700D083D0F0D0E0327A
:10038E00055B0532E5327002053164644531700754
:10039E00F531F532754801E55BB56806E4B56702DF
:1003AE00F55BC2A3E4F580E53464014533703CE5AA
:1003BE005BC394085035E52F6401452E702D743BB8
:1003CE00255BF8E6F5A0E55B14601424FE601214BC
:1003DE00601124FE600F14600E2407700C805E8086
:1003EE0060806280648066806E8078E5344533700C
:1003FE0077E51364014512706FE52F6401452E7089
:10040E00670547E54770020546B4B80EE546B40BDE
:10041E0009E4F546F547F512F513E55B5407F54388
:10042E00243BF8E6F5A0E54314601624FE6016148E
:10043E00601724FE601714601E24077026E5628084
:10044E000EE5628014E5618006E561800CE560755D
:10045E00F00A84241A8042E56075F00A84741A2525
:10046E00F080367580408035E52F452E702FE55B88
:10047E00C394035028743B255BF8E6F5A0E55B14A6
:10048E00600D14601024027014741A2519800A74F9
:10049E001A25368004741A2545F8E6F5800208847C
:10054F001207C37F81120879EF30E7031206751285
:10055F00085212038EE548B401131204AE78607C82
:10056F00007D007E007F071200FEE4F54820B225D3
:10057F00E52B452A702412089A20B21EE534453324
:10058F0070047F0180027F007533008F34752A005D
:10059F00752B018005E4F52AF52B20B325E52D45B4
:1005AF002C702412089A20B31EE52F452E70047F5D
:1005BF000180027F00752E008F2F752C00752D0185
:1005CF008005E4F52CF52DE53445337085D2A42054
:0A05DF00A480F512751301020561F6
:1005F50002054FE493A3F8E493A34003F68001F2C8
:1006050008DFF48029E493A3F85407240CC8C33306
:10061500C4540F4420C8834004F456800146F6DFD5
:10062500E4800B0102040810204080900701E47E5D
:10063500019360BCA3FF543F30E509541FFEE493CA
:10064500A360010ECF54C025E060A840B8E493A391
:10065500FAE493A3F8E493A3C8C582C8CAC583CABC
:10066500F0A3C8C582C8CAC583CADFE9DEE780BE74
:01077A00007E
:10002E00E709F608DFFA8046E709F208DFFA803EB4
:10003E0088828C83E709F0A3DFFA8032E309F608A1
:10004E00DFFA8078E309F208DFFA807088828C8309
:10005E00E309F0A3DFFA806489828A83E0A3F608BD
:10006E00DFFA805889828A83E0A3F208DFFA804C97
:10007E0080D280FA80C680D4806980F2803380106E
:10008E0080A680EA809A80A880DA80E280CA8033D7
:10009E0089828A83ECFAE493A3C8C582C8CCC5834F
:1000AE00CCF0A3C8C582C8CCC583CCDFE9DEE7801F
:1000BE000D89828A83E493A3F608DFF9ECFAA9F09E
:1000CE00EDFB2289828A83ECFAE0A3C8C582C8CCF4
:1000DE00C583CCF0A3C8C582C8CCC583CCDFEADE0D
:1000EE00E880DB89828A83E493A3F208DFF980CC6F
:1000FE0088F0EF60010E4E60C388F0ED2402B40468
:10010E000050B9F582EB2402B4040050AF2323450E
:06011E00822390007E73B5
:10012400BC000BBE0029EF8DF084FFADF022E4CCBF
:10013400F875F008EF2FFFEE33FEEC33FCEE9DEC88
:10014400984005FCEE9DFE0FD5F0E9E4CEFD22EDCE
:10015400F8F5F0EE8420D21CFEADF075F008EF2F18
:10016400FFED33FD4007985006D5F0F222C398FD09
:050174000FD5F0EA22A6
:1001790075F008758200EF2FFFEE33FECD33CDCC3D
:1001890033CCC58233C5829BED9AEC99E5829840C0
:100199000CF582EE9BFEED9AFDEC99FC0FD5F0D69D
:1001A900E4CEFBE4CDFAE4CCF9A88222B800C1B9C7
:1001B9000059BA002DEC8BF084CFCECDFCE5F0CB05
:1001C900F97818EF2FFFEE33FEED33FDEC33FCEB3E
:1001D90033FB10D703994004EB99FB0FD8E5E4F9F9
:1001E900FA227818EF2FFFEE33FEED33FDEC33FCE6
:1001F900C933C910D7059BE99A4007EC9BFCE99ADA
:10020900F90FD8E0E4C9FAE4CCFB2275F010EF2F1E
:10021900FFEE33FEED33FDCC33CCC833C810D7071E
:100229009BEC9AE899400AED9BFDEC9AFCE899F859
:0E0239000FD5F0DAE4CDFBE4CCFAE4C8F922EC
:1007EF00EF7E0024D0B40A00401B24F9B40A004065
:1007FF0011B41000400F24E0B40A004005B41000FB
:07080F00400374FFFEFF220D
:00000001FF
