:0300000002056E88
:0C056E00787FE4F6D8FD75816D0205B5BC
:09085B0030383A35303A303500EE
:10068600083B0001020304050607101A3F065B4FEC
:10069600666D7D077F6F777C395E79710233000165
:1006A600022E0001022A0001022C00010265000848
:1006B6001249000A0014001E0028003C0050007871
:1006C60000A000C8025C0000021000000437000011
:1006D6000000021400000218000002350000024467
:1006E600000002120000021600000246000002315D
:0506F6000000014800B6
:0607DB00C296C295D29601
:1007E100C2950000E4FEEF1392CC0000D295000008
:0A07F100C295EFC313FF0EBE08EC23
:0107FB0022DB
:10000E000000E4FEEFC313FF30CC03430780D2950C
:0A001E000000C29500000EBE08EAC3
:0100280022B5
:0A083C001207DB12000ED295C296DF
:01084600228F
:0D0823001207DBAF051207E1D295C2962245
:100433007F8112083CEF5470C4540F75F00AA4FE78
:10044300EF540F2EF5677F8312083CEF5470C454AA
:100453000F75F00AA4FEEF540F2EF5687F8512087E
:100463003CEF5470C4540F75F00AA4FEEF540F2EE2
:10047300F5697F8712083CEF5470C4540F75F00A76
:10048300A4FEEF540F2EF56A7F8B12083CEF5470D5
:10049300C4540F75F00AA4FEEF540F2EF56B7F8939
:1004A30012083CEF5470C4540F75F00AA4FEEF54C5
:1004B3000F2EF56C7F8D12083CEF5470C4540F75EA
:1004C300F00AA4FEEF540F2EF56D7B007A007967D6
:0104D3002206
:1005FA0090085BE493FF12076FEFC454F0FEC00645
:10060A0090085CE493FF12076FD0E02FF56790081B
:10061A005EE493FF12076FEFC454F0FEC006900821
:10062A005FE493FF12076FD0E02FF568900861E44A
:10063A0093FF12076FEFC454F0FEC006900862E4FD
:10064A0093FF12076FD0E02FFCE4FD7F8E12082380
:10065A00AD047F80120823AD687F82120823AD673C
:10066A007F841208237F8112083CEF547FF530FD06
:0C067A007F801208237D807F8E02082301
:1007FC00E4FD7F8E1208237DA97F901208237D8053
:05080C007F8E020823AD
:08079600F8E6F5807F0A7E0001
:10079E00EF1FAA0670011E4A60107C007D3CED1D05
:0A07AE00AA0470011C4A60E880F400
:0107B800221E
:0A08470000007F067E5DDEFEDFFC90
:010851002284
:080852007F6C7E91DEFEDFFCED
:01085A00227B
:1007B90075B0EF7596FFE4F5957594FFF593C2A3AF
:1007C900758911D2AFD2AD758C63758ABFD28CD2BF
:0207D900A92253
:0C083000E4F5BDF5BE75BC8C7597202268
:1006FC00AE14AF157C037DE81201467E007F64CFFB
:10070C00CDCFCECCCE1201468E188F19AE14AF15AC
:10071C007C007D641201467E007F0ACFCDCFCECC0B
:10072C00CE1201468E358F36AE14AF157C007D0A85
:08073C001201468C448D452298
:03000B00020811D7
:10081100C0E0758C63758ABFC2AF120830D2AFD009
:02082100E032C3
:03002B0002038746
:10038700C0E0C0F0C083C082C0D075D0080511E5B9
:100397001170020510C2AFD394D0E5109407404DF9
:1003A700E55C13FEE55D13FFEF253AFFEE3539FEF9
:1003B700E43538FDE43537FCC00EC00FAE5CAF5DE9
:1003C700AB0FAA0EE4F9F8D00FD00E1201D78E1496
:1003D7008F15753A00753900753800753700755CEB
:1003E70000755D007510007511001206FC055DE5CE
:1003F7005D7002055CAFBDEFFEADBE7C00E42DFF76
:10040700EC3EFEE4FDE53A2FF53AE5393EF539EDE8
:100417003538F538EC3537F53753BCEF43BC08D2E0
:0C042700AFD0D0D082D083D0F0D0E03233
:10074400EFA2E713A2E71324FF92A2EF75F00412BD
:100754000124AEF0EEA2E71324FF92A1EF75F0029C
:0B076400120124AFF0EF24FF92A0224E
:10026900055B0532E532700205316464453170077A
:10027900F531F532754801E55BB56606E4B5650209
:10028900F55BC2A3E4F580E53464014533703CE5D0
:100299005BC394085035E52F6401452E702D743BDE
:1002A900255BF8E6F5A0E55B14601424FE601214E2
:1002B900601124FE600F14600E2407700C805E80AC
:1002C90060806280648066806E807CE5344533702E
:1002D9007BE513640145127073E52F6401452E70A7
:1002E9006B0547E54770020546B4D00EE546B407ED
:1002F90009E4F546F547F512F513E55B5407F543AF
:10030900243BF8E6F5A0E54314601624FE601614B4
:10031900601724FE601714601E2407702AE56080A8
:100329000EE5608014E55F8006E55F800CE55E758B
:10033900F00A84241A800AE55E75F00A84741A2585
:10034900F0F8E6F5808034758040802FE52F452E42
:100359007029FF120744741A2519120796E4F580CB
:100369007F01120744741A2536120796E4F5807F37
:0E03790002120744741A25451207960208471F
:1004D4001207B97F8112083CEF30E7031205FA12C4
:1004E40007FC120269E548B40113120433785E7CF8
:1004F400007D007E007F071200FEE4F54820B2254F
:10050400E52B452A702412085220B21EE5344533E7
:1005140070047F0180027F007533008F34752A00D8
:10052400752B018005E4F52AF52B20B325E52D452F
:100534002C702412085220B31EE52F452E70047F20
:100544000180027F00752E008F2F752C00752D0100
:100554008005E4F52CF52DE53445337085D2A420CF
:0A056400A480F5127513010204E6ED
:10057A000204D4E493A3F8E493A34003F68001F2BF
:10058A0008DFF48029E493A3F85407240CC8C33382
:10059A00C4540F4420C8834004F456800146F6DF51
:1005AA00E4800B0102040810204080900686E47E55
:1005BA00019360BCA3FF543F30E509541FFEE49346
:1005CA00A360010ECF54C025E060A840B8E493A30D
:1005DA00FAE493A3F8E493A3C8C582C8CAC583CA38
:1005EA00F0A3C8C582C8CAC583CADFE9DEE780BEF0
:0106FB0000FE
:10002E00E709F608DFFA8046E709F208DFFA803EB4
:10003E0088828C83E709F0A3DFFA8032E309F608A1
:10004E00DFFA8078E309F208DFFA807088828C8309
:10005E00E309F0A3DFFA806489828A83E0A3F608BD
:10006E00DFFA805889828A83E0A3F208DFFA804C97
:10007E0080D280FA80C680D4806980F2803380106E
:10008E0080A680EA809A80A880DA80E280CA8033D7
:10009E0089828A83ECFAE493A3C8C582C8CCC5834F
:1000AE00CCF0A3C8C582C8CCC583CCDFE9DEE7801F
:1000BE000D89828A83E493A3F608DFF9ECFAA9F09E
:1000CE00EDFB2289828A83ECFAE0A3C8C582C8CCF4
:1000DE00C583CCF0A3C8C582C8CCC583CCDFEADE0D
:1000EE00E880DB89828A83E493A3F208DFF980CC6F
:1000FE0088F0EF60010E4E60C388F0ED2402B40468
:10010E000050B9F582EB2402B4040050AF2323450E
:06011E00822390007E73B5
:10012400C2D530F707B2D563F0FF05F030E70CB263
:10013400D5F4048463F0FF05F080018430D502F423
:02014400042293
:10014600BC000BBE0029EF8DF084FFADF022E4CC9D
:10015600F875F008EF2FFFEE33FEEC33FCEE9DEC66
:10016600984005FCEE9DFE0FD5F0E9E4CEFD22EDAC
:10017600F8F5F0EE8420D21CFEADF075F008EF2FF6
:10018600FFED33FD4007985006D5F0F222C398FDE7
:050196000FD5F0EA2284
:10019B0075F008758200EF2FFFEE33FECD33CDCC1B
:1001AB0033CCC58233C5829BED9AEC99E58298409E
:1001BB000CF582EE9BFEED9AFDEC99FC0FD5F0D67B
:1001CB00E4CEFBE4CDFAE4CCF9A88222B800C1B9A5
:1001DB000059BA002DEC8BF084CFCECDFCE5F0CBE3
:1001EB00F97818EF2FFFEE33FEED33FDEC33FCEB1C
:1001FB0033FB10D703994004EB99FB0FD8E5E4F9D7
:10020B00FA227818EF2FFFEE33FEED33FDEC33FCC3
:10021B00C933C910D7059BE99A4007EC9BFCE99AB7
:10022B00F90FD8E0E4C9FAE4CCFB2275F010EF2FFC
:10023B00FFEE33FEED33FDCC33CCC833C810D707FC
:10024B009BEC9AE899400AED9BFDEC9AFCE899F837
:0E025B000FD5F0DAE4CDFBE4CCFAE4C8F922CA
:10076F00EF7E0024D0B40A00401B24F9B40A0040E5
:10077F0011B41000400F24E0B40A004005B410007B
:07078F00400374FFFEFF228E
:00000001FF
