:0300000002060BEA
:0C060B00787FE4F6D8FD75816E0206527F
:0908AF0031303A35323A35380097
:10072300083B0001020304050607101A3F065B4F4E
:10073300666D7D077F6F777C395E797102330001C7
:10074300022E0001022A0001022C000102660008A9
:100753001248000A0014001E0028003C00500078D4
:1007630000A000C8025D0000021000000437000072
:10077300000002140000025B0000021800000235B2
:1007830000000243000002120000021600000245AE
:09079300000002310000014700E2
:06083800C296C295D296A3
:10083E00C2950000E4FEEF1392CC0000D2950000AA
:0A084E00C295EFC313FF0EBE08ECC5
:01085800227D
:100859000000E4FEEFC313FF30CC03430780D295B9
:0A0869000000C29500000EBE08EA70
:010873002262
:0A089B00120838120859D295C296CF
:0108A5002230
:0D000E00120838AF0512083ED295C29622A6
:1004D0007F8112089BEF5470C4540F75F00AA4FE7C
:1004E000EF540F2EF5687F8312089BEF5470C454AD
:1004F0000F75F00AA4FEEF540F2EF5697F851208E0
:100500009BEF5470C4540F75F00AA4FEEF540F2EE5
:10051000F56A7F8712089BEF5470C4540F75F00A78
:10052000A4FEEF540F2EF56B7F8B12089BEF5470D7
:10053000C4540F75F00AA4FEEF540F2EF56C7F899A
:1005400012089BEF5470C4540F75F00AA4FEEF54C8
:100550000F2EF56D7F8D12089BEF5470C4540F75EC
:10056000F00AA4FEEF540F2EF56E7B007A00796836
:010570002268
:100697009008AFE493FF120811EFC454F0FEC006B0
:1006A7009008B0E493FF120811D0E02FF568900886
:1006B700B2E493FF120811EFC454F0FEC00690088D
:1006C700B3E493FF120811D0E02FF5699008B5E461
:1006D70093FF120811EFC454F0FEC0069008B6E469
:1006E70093FF120811D0E02FFCE4FD7F8E12000E5D
:1006F700AD047F8012000EAD697F8212000EAD68D7
:100707007F8412000E7F8112089BEF547FF530FD26
:0C0717007F8012000E7D807F8E02000E9D
:10087400E4FD7F8E12000E7DA97F9012000E7D8014
:050884007F8E02000E52
:070003000000007F34DFFE66
:01000A0022D3
:0808A6007F6C7E91DEFEDFFC99
:0108AE002227
:1007E50075B0EF7596FFE4F5957594FFF593C2A383
:1007F500758911D2AFD2AD758C63758ABFD28C75F0
:0C0805008D3C758BAFD28ED2A9D2AB22F5
:0C001E00E4F5BDF5BE75BC8C7597202282
:10079D00AE14AF157C037DE81201247E007F64CF7B
:1007AD00CDCFCECCCE1201248E188F19AE14AF152D
:1007BD007C007D641201247E007F0ACFCDCFCECC8C
:1007CD00CE1201248E358F36AE14AF157C007D0A06
:0807DD001201248C438D44221B
:03000B000208895F
:10088900C0E0758C63758ABFC2AF12001ED2AFD0AB
:02089900E0324B
:03001B0002036A73
:10036A00C0E0C0D075D000C000C006C007758D3C83
:10037A00758BAFC2AFE55C25E02448F8E6FE08E6D7
:10038A00FFC3E5159FE5149E4010E5159FE5149EF1
:10039A005008855B5B855C5C8073C3E5159FE5143B
:1003AA009E5036E55C155C7002155BE55C9400E5D1
:1003BA005B94005006755B00755C0074042567F554
:1003CA0067E43566F566D3E567942CE566940040E4
:1003DA003C75660075672C8034055CE55C70020527
:1003EA005BC39408E55B94004006755B00755C0886
:1003FA0074FC2567F56774FF3566F566C3E567948F
:10040A0008E56694005006756600756708D2AFD095
:0A041A0007D006D000D0D0D0E032A9
:03002B00020424A8
:10042400C0E0C0F0C083C082C0D075D0080511E51B
:100434001170020510C2AFD394D0E5109407404D5B
:10044400E55D13FEE55E13FFEF253AFFEE3539FE59
:10045400E43538FDE43537FCC00EC00FAE5DAF5E49
:10046400AB0FAA0EE4F9F8D00FD00E1201B58E141A
:100474008F15753A00753900753800753700755D4C
:1004840000755E0075100075110012079D055EE58C
:100494005E7002055DAFBDEFFEADBE7C00E42DFFD6
:1004A400EC3EFEE4FDE53A2FF53AE5393EF539ED4B
:1004B4003538F538EC3537F53753BCEF43BC08D243
:0C04C400AFD0D0D082D083D0F0D0E03296
:10024700055A0532E532700205316464453170079D
:10025700F531F532754701E55AB56706E4B566022B
:10026700F55AC2A3E4F580E53464014533703CE5F3
:100277005AC394085035E52F6401452E702D743B01
:10028700255AF8E6F5A0E55A14601424FE60121406
:10029700601124FE600F14600E2407700C806180CB
:1002A700638065806780698071807BE53445337042
:1002B7007AE513640145127072E52F6401452E70CB
:1002C7006AE55AC3940850630546E546700205453A
:1002D700B4B80EE545B40B09E4F545F546F512F556
:1002E70013743B255AF8E6F5A0E55A14601624FE68
:1002F700601614601724FE601714601E240770260A
:10030700E561800EE5618014E5608006E560800C9C
:10031700E55F75F00A84241A8042E55F75F00A8468
:10032700741A25F080367580408035E52F452E708C
:100337002FE55AC394035028743B255AF8E6F5A0D5
:10034700E55A14600D14601024027014741A2519EC
:10035700800A741A25368004741A2544F8E6F58055
:030367000200038E
:100571001207E57F8112089BEF30E70312069712FD
:100581000874120247E547B401131204D0785F7C66
:10059100007D007E007F071200FEE4F54720B225B2
:1005A100E52B452A70241208A620B21EE5344533F6
:1005B10070047F0180027F007533008F34752A003B
:1005C100752B018005E4F52AF52B20B325E52D4592
:1005D1002C70241208A620B31EE52F452E70047F2F
:1005E1000180027F00752E008F2F752C00752D0163
:1005F1008005E4F52CF52DE53445337085D2A42032
:0A060100A480F512751301020583B1
:10061700020571E493A3F8E493A34003F68001F283
:1006270008DFF48029E493A3F85407240CC8C333E4
:10063700C4540F4420C8834004F456800146F6DFB3
:10064700E4800B0102040810204080900723E47E19
:10065700019360BCA3FF543F30E509541FFEE493A8
:10066700A360010ECF54C025E060A840B8E493A36F
:10067700FAE493A3F8E493A3C8C582C8CAC583CA9A
:10068700F0A3C8C582C8CAC583CADFE9DEE780BE52
:01079C00005C
:10002E00E709F608DFFA8046E709F208DFFA803EB4
:10003E0088828C83E709F0A3DFFA8032E309F608A1
:10004E00DFFA8078E309F208DFFA807088828C8309
:10005E00E309F0A3DFFA806489828A83E0A3F608BD
:10006E00DFFA805889828A83E0A3F208DFFA804C97
:10007E0080D280FA80C680D4806980F2803380106E
:10008E0080A680EA809A80A880DA80E280CA8033D7
:10009E0089828A83ECFAE493A3C8C582C8CCC5834F
:1000AE00CCF0A3C8C582C8CCC583CCDFE9DEE7801F
:1000BE000D89828A83E493A3F608DFF9ECFAA9F09E
:1000CE00EDFB2289828A83ECFAE0A3C8C582C8CCF4
:1000DE00C583CCF0A3C8C582C8CCC583CCDFEADE0D
:1000EE00E880DB89828A83E493A3F208DFF980CC6F
:1000FE0088F0EF60010E4E60C388F0ED2402B40468
:10010E000050B9F582EB2402B4040050AF2323450E
:06011E00822390007E73B5
:10012400BC000BBE0029EF8DF084FFADF022E4CCBF
:10013400F875F008EF2FFFEE33FEEC33FCEE9DEC88
:10014400984005FCEE9DFE0FD5F0E9E4CEFD22EDCE
:10015400F8F5F0EE8420D21CFEADF075F008EF2F18
:10016400FFED33FD4007985006D5F0F222C398FD09
:050174000FD5F0EA22A6
:1001790075F008758200EF2FFFEE33FECD33CDCC3D
:1001890033CCC58233C5829BED9AEC99E5829840C0
:100199000CF582EE9BFEED9AFDEC99FC0FD5F0D69D
:1001A900E4CEFBE4CDFAE4CCF9A88222B800C1B9C7
:1001B9000059BA002DEC8BF084CFCECDFCE5F0CB05
:1001C900F97818EF2FFFEE33FEED33FDEC33FCEB3E
:1001D90033FB10D703994004EB99FB0FD8E5E4F9F9
:1001E900FA227818EF2FFFEE33FEED33FDEC33FCE6
:1001F900C933C910D7059BE99A4007EC9BFCE99ADA
:10020900F90FD8E0E4C9FAE4CCFB2275F010EF2F1E
:10021900FFEE33FEED33FDCC33CCC833C810D7071E
:100229009BEC9AE899400AED9BFDEC9AFCE899F859
:0E0239000FD5F0DAE4CDFBE4CCFAE4C8F922EC
:10081100EF7E0024D0B40A00401B24F9B40A004042
:1008210011B41000400F24E0B40A004005B41000D8
:07083100400374FFFEFF22EB
:00000001FF
