:030000000205CB2B
:0C05CB00787FE4F6D8FD75817A020612F4
:0909340032303A34333A30340019
:1006E300083B0001020304050607101A3F065B4F8F
:1006F300666D7D077F6F777C395E79710233000108
:10070300022E0001022A0001022C000102720008DD
:100713001C4800140028003C00500064007800A02E
:1007230000B400C800DC00F001040118012C0267CA
:1007330000000210000002690000043700000000FE
:1007430002140000026500000218000002350000D8
:1007530002430000021200000216000002450000DE
:070763000231000001470014
:0608B200C296C295D29629
:1008B800C2950000E4FEEF1392CC0000D295000030
:0A08C800C295EFC313FF0EBE08EC4B
:0108D2002203
:1008D3000000E4FEEFC313FF30CC03430780D2953F
:0A08E3000000C29500000EBE08EAF6
:0108ED0022E8
:0A0915001208B21208D3D295C29660
:01091F0022B5
:0D000E001208B2AF051208B8D295C29622B2
:10052A007F81120915EF5470C4540F75F00AA4FEA6
:10053A00EF540F2EF5747F83120915EF5470C454CB
:10054A000F75F00AA4FEEF540F2EF5757F85120978
:10055A0015EF5470C4540F75F00AA4FEEF540F2E11
:10056A00F5767F87120915EF5470C4540F75F00A97
:10057A00A4FEEF540F2EF5777F8B120915EF5470F6
:10058A00C4540F75F00AA4FEEF540F2EF5787F8934
:10059A00120915EF5470C4540F75F00AA4FEEF54F3
:1005AA000F2EF5797F8D120915EF5470C4540F750B
:1005BA00F00AA4FEEF540F2EF57A7B007A007974C4
:0105CA00220E
:10065700900934E493FF12088BEFC454F0FEC006F0
:10066700900935E493FF12088BD0E02FF5749009B9
:1006770037E493FF12088BEFC454F0FEC0069009CD
:1006870038E493FF12088BD0E02FF57590093AE410
:1006970093FF12088BEFC454F0FEC00690093BE4A9
:1006A70093FF12088BD0E02FFCE4FD7F8E12000E23
:1006B700AD047F8012000EAD757F8212000EAD74FF
:1006C7007F8412000E7F81120915EF547FF530FDEC
:0C06D7007F8012000E7D807F8E02000EDE
:1008EE00E4FD7F8E12000E7DA97F9012000E7D809A
:0508FE007F8E02000ED8
:0A09200000007F027E0FDEFEDFFC08
:01092A0022AA
:08092B007F6C7E91DEFEDFFC13
:0109330022A1
:10085F0075B0EF7596FFE4F5957594FFF593C2A308
:10086F00758911D2AFD2AD758C63758ABFD28C7575
:0C087F008DD4758BCDD28ED2A9D2AB22C5
:0C001E00E4F5BDF5BE75BC8C7597202282
:1007CF00AE14AF157C037DE81201247E007F64CF49
:1007DF00CDCFCECCCE1201248E188F19AE14AF15FB
:1007EF007C007D641201247E007F0ACFCDCFCECC5A
:1007FF00CE1201248E358F36AE14AF157C007D0AD4
:08080F001201248C438D4422E8
:03000B00020903E4
:10090300C0E0758C63758ABFC2AF12001ED2AFD030
:02091300E032D0
:10076B00D3E51594F1E51494004006751400751546
:10077B00F1AE14AF157C007D0A1201247C007D03C1
:10078B00120179EF7803C333CE33CED8F9FFC3749C
:10079B00489FFDE49EFCEDB5730BECB572078572BB
:1007AB007285737322D3E5739DE5729C400A74F8CE
:1007BB002573F57374FF800774082573F573E4359F
:0307CB0072F57252
:0107CE002208
:03001B00020817C1
:10081700C0E0C0F0C0D075D000C000C004C005C0A3
:1008270006C007758DD4758BCDC2AF056AE56A70B2
:10083700020569D3941EE56994004009756900753E
:100847006A0012076BD2AFD007D006D005D004D00C
:0808570000D0D0D0F0D0E03257
:03002B0002047E4E
:10047E00C0E0C0F0C083C082C0D075D0080511E5C1
:10048E001170020510C2AFD394D0E5109407404D01
:10049E00E56713FEE56813FFEF253AFFEE3539FEEB
:1004AE00E43538FDE43537FCC00EC00FAE67AF68DB
:1004BE00AB0FAA0EE4F9F8D00FD00E1201EB8E148A
:1004CE008F15753A007539007538007537007567E8
:1004DE00007568007510007511001207CF0568E5EC
:1004EE006870020567AFBDEFFEADBE7C00E42DFF68
:1004FE00EC3EFEE4FDE53A2FF53AE5393EF539EDF1
:10050E003538F538EC3537F53753BCEF43BC08D2E8
:0C051E00AFD0D0D082D083D0F0D0E0323B
:10027D0005640532E532700205316464453170075D
:10028D00F531F532754701E564B57306E4B57202D3
:10029D00F564C2A3E4F580E53464014533703CE5B3
:1002AD0064C394085035E52F6401452E702D743BC1
:1002BD002564F8E6F5A0E56414601424FE601214BC
:1002CD00601124FE600F14600E2407700C80618095
:1002DD00638065806780698071807BE5344533700C
:1002ED007AE513640145127072E52F6401452E7095
:1002FD006AE564C3940850630546E54670020545FA
:10030D00B4D00EE545B40709E4F545F546F512F50B
:10031D0013743B2564F8E6F5A0E56414601624FE1D
:10032D00601614601724FE601714601E24077026D3
:10033D00E56D800EE56D8014E56C8006E56C800C36
:10034D00E56B75F00A84241A8048E56B75F00A8414
:10035D00741A25F0803C758040803BE52F452E704A
:10036D0035E564C39403502E753300753401743B29
:10037D002564F8E6F5A0E56414600D146010240200
:10038D007014741A2519800A741A25368004741A8B
:09039D002544F8E6F58002092070
:1003A60012085F7F81120915EF30E7031206571214
:1003B60008EEE515451460FAD3E51594F1E51494B5
:1003C6000040067514007515F1AE14AF157C007D5E
:1003D6000A1201247C007D03120124EF7803C33343
:1003E600CE33CED8F9FFC374489FF573E49EF572F9
:1003F60012027DE547B4011312052A786B7C007D55
:10040600007E007F071200FEE4F54720B225E52BAB
:10041600452A702412092B20B21EE5344533700498
:100426007F0180027F007533008F34752A00752B9B
:10043600018005E4F52AF52B20B325E52D452C7022
:100446002412092B20B31EE52F452E70047F018050
:10045600027F00752E008F2F752C00752D018005EB
:10046600E4F52CF52DE53445337085D2A420A4801F
:08047600F5127513010203F6F3
:1005D7000203A6E493A3F8E493A34003F68001F291
:1005E70008DFF48029E493A3F85407240CC8C33325
:1005F700C4540F4420C8834004F456800146F6DFF4
:10060700E4800B01020408102040809006E3E47E9A
:10061700019360BCA3FF543F30E509541FFEE493E8
:10062700A360010ECF54C025E060A840B8E493A3AF
:10063700FAE493A3F8E493A3C8C582C8CAC583CADA
:10064700F0A3C8C582C8CAC583CADFE9DEE780BE92
:01076A00008E
:10002E00E709F608DFFA8046E709F208DFFA803EB4
:10003E0088828C83E709F0A3DFFA8032E309F608A1
:10004E00DFFA8078E309F208DFFA807088828C8309
:10005E00E309F0A3DFFA806489828A83E0A3F608BD
:10006E00DFFA805889828A83E0A3F208DFFA804C97
:10007E0080D280FA80C680D4806980F2803380106E
:10008E0080A680EA809A80A880DA80E280CA8033D7
:10009E0089828A83ECFAE493A3C8C582C8CCC5834F
:1000AE00CCF0A3C8C582C8CCC583CCDFE9DEE7801F
:1000BE000D89828A83E493A3F608DFF9ECFAA9F09E
:1000CE00EDFB2289828A83ECFAE0A3C8C582C8CCF4
:1000DE00C583CCF0A3C8C582C8CCC583CCDFEADE0D
:1000EE00E880DB89828A83E493A3F208DFF980CC6F
:1000FE0088F0EF60010E4E60C388F0ED2402B40468
:10010E000050B9F582EB2402B4040050AF2323450E
:06011E00822390007E73B5
:10012400BC000BBE0029EF8DF084FFADF022E4CCBF
:10013400F875F008EF2FFFEE33FEEC33FCEE9DEC88
:10014400984005FCEE9DFE0FD5F0E9E4CEFD22EDCE
:10015400F8F5F0EE8420D21CFEADF075F008EF2F18
:10016400FFED33FD4007985006D5F0F222C398FD09
:050174000FD5F0EA22A6
:10017900C2D5EC30E709B2D5E4C39DFDE49CFCEEA1
:1001890030E715B2D5E4C39FFFE49EFE120124C3F4
:10019900E49DFDE49CFC800312012430D507C3E4EF
:0601A9009FFFE49EFE2210
:1001AF0075F008758200EF2FFFEE33FECD33CDCC07
:1001BF0033CCC58233C5829BED9AEC99E58298408A
:1001CF000CF582EE9BFEED9AFDEC99FC0FD5F0D667
:1001DF00E4CEFBE4CDFAE4CCF9A88222B800C1B991
:1001EF000059BA002DEC8BF084CFCECDFCE5F0CBCF
:1001FF00F97818EF2FFFEE33FEED33FDEC33FCEB08
:10020F0033FB10D703994004EB99FB0FD8E5E4F9C2
:10021F00FA227818EF2FFFEE33FEED33FDEC33FCAF
:10022F00C933C910D7059BE99A4007EC9BFCE99AA3
:10023F00F90FD8E0E4C9FAE4CCFB2275F010EF2FE8
:10024F00FFEE33FEED33FDCC33CCC833C810D707E8
:10025F009BEC9AE899400AED9BFDEC9AFCE899F823
:0E026F000FD5F0DAE4CDFBE4CCFAE4C8F922B6
:10088B00EF7E0024D0B40A00401B24F9B40A0040C8
:10089B0011B41000400F24E0B40A004005B410005E
:0708AB00400374FFFEFF2271
:00000001FF
