:030000000205876F
:0C058700787FE4F6D8FD7581780205CE7F
:0908D50031313A34303A33370076
:10069F00083B0001020304050607101A3F065B4FD3
:1006AF00666D7D077F6F777C395E7971023300014C
:1006BF00022E0001022A0001022C00010270000824
:1006CF001C4800140028003C00500064007800A073
:1006DF0000B400C800DC00F001040118012C02670F
:1006EF000000021000000437000000000214000098
:1006FF0002650000021800000235000002430000EE
:10070F000212000002160000024500000231000034
:03071F000147008F
:06085300C296C295D29688
:10085900C2950000E4FEEF1392CC0000D29500008F
:0A086900C295EFC313FF0EBE08ECAA
:010873002262
:100874000000E4FEEFC313FF30CC03430780D2959E
:0A0884000000C29500000EBE08EA55
:01088E002247
:0A08B600120853120874D295C2967E
:0108C0002215
:0D000E00120853AF05120859D295C2962270
:10044C007F811208B6EF5470C4540F75F00AA4FEE5
:10045C00EF540F2EF5727F831208B6EF5470C4540C
:10046C000F75F00AA4FEEF540F2EF5737F8512085A
:10047C00B6EF5470C4540F75F00AA4FEEF540F2E4F
:10048C00F5747F871208B6EF5470C4540F75F00AD8
:10049C00A4FEEF540F2EF5757F8B1208B6EF547037
:1004AC00C4540F75F00AA4FEEF540F2EF5767F8915
:1004BC001208B6EF5470C4540F75F00AA4FEEF5432
:1004CC000F2EF5777F8D1208B6EF5470C4540F754C
:1004DC00F00AA4FEEF540F2EF5787B007A007972A7
:0104EC0022ED
:100613009008D5E493FF12082CEFC454F0FEC006F3
:100623009008D6E493FF12082CD0E02FF5729008BF
:10063300D8E493FF12082CEFC454F0FEC0069008D0
:10064300D9E493FF12082CD0E02FF5739008DBE474
:1006530093FF12082CEFC454F0FEC0069008DCE4AC
:1006630093FF12082CD0E02FFCE4FD7F8E12000EC6
:10067300AD047F8012000EAD737F8212000EAD7247
:100683007F8412000E7F811208B6EF547FF530FD90
:0C0693007F8012000E7D807F8E02000E22
:10088F00E4FD7F8E12000E7DA97F9012000E7D80F9
:05089F007F8E02000E37
:0A08C10000007F027E0FDEFEDFFC68
:0108CB00220A
:0808CC007F6C7E91DEFEDFFC73
:0108D4002201
:1008000075B0EF7596FFE4F5957594FFF593C2A367
:10081000758911D2AFD2AD758C63758ABFD28C75D4
:0C0820008D3C758BAFD28ED2A9D2AB22DA
:0C001E00E4F5BDF5BE75BC8C7597202282
:10078700AE14AF157C037DE81201247E007F64CF91
:10079700CDCFCECCCE1201248E188F19AE14AF1543
:1007A7007C007D641201247E007F0ACFCDCFCECCA2
:1007B700CE1201248E358F36AE14AF157C007D0A1C
:0807C7001201248C438D442231
:03000B000208A444
:1008A400C0E0758C63758ABFC2AF12001ED2AFD090
:0208B400E03230
:10072300D3E51594F1E5149400400675140075158E
:10073300F1AE14AF157C007D0A1201247C007D0309
:10074300120179EF7803C333CE33CED8F9FFC374E4
:10075300489FFDE49EFCEDB5710BECB57007857009
:100763007085717122D3E5719DE5709C400A74F820
:100773002571F57174FF800774082571F571E435EF
:0307830070F5709E
:010786002250
:03001B000207CF0A
:1007CF00C0E0C0F0C0D075D000C000C004C005C0EC
:1007DF0006C007758D3C758BAFC2AF120723D2AF22
:1007EF00D007D006D005D004D000D0D0D0F0D0E0C4
:0107FF0032C7
:03002B000203A02D
:1003A000C0E0C0F0C083C082C0D075D0080511E5A0
:1003B0001170020510C2AFD394D0E5109407404DE0
:1003C000E56713FEE56813FFEF253AFFEE3539FECA
:1003D000E43538FDE43537FCC00EC00FAE67AF68BA
:1003E000AB0FAA0EE4F9F8D00FD00E1201EB8E1469
:1003F0008F15753A007539007538007537007567C7
:10040000007568007510007511001207870568E512
:100410006870020567AFBDEFFEADBE7C00E42DFF46
:10042000EC3EFEE4FDE53A2FF53AE5393EF539EDCF
:100430003538F538EC3537F53753BCEF43BC08D2C7
:0C044000AFD0D0D082D083D0F0D0E0321A
:10027D0005640532E532700205316464453170075D
:10028D00F531F532754701E564B57106E4B57002D7
:10029D00F564C2A3E4F580E53464014533703CE5B3
:1002AD0064C394085035E52F6401452E702D743BC1
:1002BD002564F8E6F5A0E56414601424FE601214BC
:1002CD00601124FE600F14600E2407700C80618095
:1002DD00638065806780698071807BE5344533700C
:1002ED007AE513640145127072E52F6401452E7095
:1002FD006AE564C3940850630546E54670020545FA
:10030D00B4D00EE545B40709E4F545F546F512F50B
:10031D0013743B2564F8E6F5A0E56414601624FE1D
:10032D00601614601724FE601714601E24077026D3
:10033D00E56B800EE56B8014E56A8006E56A800C3E
:10034D00E56975F00A84241A8042E56975F00A841E
:10035D00741A25F080367580408035E52F452E7056
:10036D002FE564C394035028743B2564F8E6F5A08B
:10037D00E56414600D14601024027014741A2519AC
:10038D00800A741A25368004741A2544F8E6F5801F
:03039D000208C192
:1004ED001208007F811208B6EF30E70312061312CF
:1004FD00088F12027DE547B4011312044C78697C14
:10050D00007D007E007F071200FEE4F54720B22536
:10051D00E52B452A70241208CC20B21EE534453354
:10052D0070047F0180027F007533008F34752A00BF
:10053D00752B018005E4F52AF52B20B325E52D4516
:10054D002C70241208CC20B31EE52F452E70047F8D
:10055D000180027F00752E008F2F752C00752D01E7
:10056D008005E4F52CF52DE53445337085D2A420B6
:0A057D00A480F5127513010204FFBB
:100593000204EDE493A3F8E493A34003F68001F28D
:1005A30008DFF48029E493A3F85407240CC8C33369
:1005B300C4540F4420C8834004F456800146F6DF38
:1005C300E4800B010204081020408090069FE47E23
:1005D300019360BCA3FF543F30E509541FFEE4932D
:1005E300A360010ECF54C025E060A840B8E493A3F4
:1005F300FAE493A3F8E493A3C8C582C8CAC583CA1F
:10060300F0A3C8C582C8CAC583CADFE9DEE780BED6
:0107220000D6
:10002E00E709F608DFFA8046E709F208DFFA803EB4
:10003E0088828C83E709F0A3DFFA8032E309F608A1
:10004E00DFFA8078E309F208DFFA807088828C8309
:10005E00E309F0A3DFFA806489828A83E0A3F608BD
:10006E00DFFA805889828A83E0A3F208DFFA804C97
:10007E0080D280FA80C680D4806980F2803380106E
:10008E0080A680EA809A80A880DA80E280CA8033D7
:10009E0089828A83ECFAE493A3C8C582C8CCC5834F
:1000AE00CCF0A3C8C582C8CCC583CCDFE9DEE7801F
:1000BE000D89828A83E493A3F608DFF9ECFAA9F09E
:1000CE00EDFB2289828A83ECFAE0A3C8C582C8CCF4
:1000DE00C583CCF0A3C8C582C8CCC583CCDFEADE0D
:1000EE00E880DB89828A83E493A3F208DFF980CC6F
:1000FE0088F0EF60010E4E60C388F0ED2402B40468
:10010E000050B9F582EB2402B4040050AF2323450E
:06011E00822390007E73B5
:10012400BC000BBE0029EF8DF084FFADF022E4CCBF
:10013400F875F008EF2FFFEE33FEEC33FCEE9DEC88
:10014400984005FCEE9DFE0FD5F0E9E4CEFD22EDCE
:10015400F8F5F0EE8420D21CFEADF075F008EF2F18
:10016400FFED33FD4007985006D5F0F222C398FD09
:050174000FD5F0EA22A6
:10017900C2D5EC30E709B2D5E4C39DFDE49CFCEEA1
:1001890030E715B2D5E4C39FFFE49EFE120124C3F4
:10019900E49DFDE49CFC800312012430D507C3E4EF
:0601A9009FFFE49EFE2210
:1001AF0075F008758200EF2FFFEE33FECD33CDCC07
:1001BF0033CCC58233C5829BED9AEC99E58298408A
:1001CF000CF582EE9BFEED9AFDEC99FC0FD5F0D667
:1001DF00E4CEFBE4CDFAE4CCF9A88222B800C1B991
:1001EF000059BA002DEC8BF084CFCECDFCE5F0CBCF
:1001FF00F97818EF2FFFEE33FEED33FDEC33FCEB08
:10020F0033FB10D703994004EB99FB0FD8E5E4F9C2
:10021F00FA227818EF2FFFEE33FEED33FDEC33FCAF
:10022F00C933C910D7059BE99A4007EC9BFCE99AA3
:10023F00F90FD8E0E4C9FAE4CCFB2275F010EF2FE8
:10024F00FFEE33FEED33FDCC33CCC833C810D707E8
:10025F009BEC9AE899400AED9BFDEC9AFCE899F823
:0E026F000FD5F0DAE4CDFBE4CCFAE4C8F922B6
:10082C00EF7E0024D0B40A00401B24F9B40A004027
:10083C0011B41000400F24E0B40A004005B41000BD
:07084C00400374FFFEFF22D0
:00000001FF
