:03000000020A37BA
:0C0A3700787FE4F6D8FD75813A020A7E53
:090CB00030383A33383A3336008B
:100BC3000821000102030405060710083F065B4FD6
:100BD300666D7D077F6F777C395E7971021F000137
:100BE30002180001021A000102320008021D00006F
:030BF300012900D5
:060C1E00C296C295D296B9
:100C2400C2950000E4FEEF1392CC0000D2950000C0
:0A0C3400C295EFC313FF0EBE08ECDB
:010C3E002293
:100C5F000000E4FEEFC313FF30CC03430780D295AF
:0A0C6F000000C29500000EBE08EA66
:010C79002258
:0A0C9C00120C1E120C5FD295C296D6
:010CA600222B
:0D0C8F00120C1EAF05120C24D295C2962245
:1008F6007F81120C9CEF5470C4540F75F00AA4FE4D
:10090600EF540F2EF5347F83120C9CEF5470C454B1
:100916000F75F00AA4FEEF540F2EF5357F85120CE5
:100926009CEF5470C4540F75F00AA4FEEF540F2EBA
:10093600F5367F87120C9CEF5470C4540F75F00A7D
:10094600A4FEEF540F2EF5377F8B120C9CEF5470DC
:10095600C4540F75F00AA4FEEF540F2EF5387F89A4
:10096600120C9CEF5470C4540F75F00AA4FEEF5499
:100976000F2EF5397F8D120C9CEF5470C4540F75F1
:10098600F00AA4FEEF540F2EF53A7B007A00793474
:01099600223E
:100AC300900CB0E493FF120BF7EFC454F0FEC00692
:100AD300900CB1E493FF120BF7D0E02FF534900C98
:100AE300B3E493FF120BF7EFC454F0FEC006900C6F
:100AF300B4E493FF120BF7D0E02FF535900CB6E476
:100B030093FF120BF7EFC454F0FEC006900CB7E44A
:100B130093FF120BF7D0E02FFCE4FD7F8E120C8FB6
:100B2300AD047F80120C8FAD357F82120C8FAD34F4
:100B33007F84120C8F7F81120C9CEF547FF51CFD78
:0C0B43007F80120C8F7D807F8E020C8F53
:100C7A00E4FD7F8E120C8F7DA97F90120C8F7D80F0
:050C8A007F8E020C8FBB
:100C3F0075B0EF7596FFE4F5957594FFF593C2A324
:100C4F00758901D2AF758CFE758A0BD28CD2A92211
:03000B0002099750
:10099700C0E0C0F0C0D075D000C000758CFE758A6D
:1009A7000BC2AF052A051EE51E7002051D646445CE
:1009B7001D7007F51DF51E752901E52AB53306E4F7
:1009C700B53202F52AC2A3758000E5206401451FF0
:1009D7007053E52AC39408504C7421252AF8E6F58C
:1009E700A0E52A14601624FE601614601724FE6022
:1009F7001714601E2407702AE52D800EE52D80143C
:100A0700E52C8006E52C800CE52B75F00A8424087C
:100A1700800AE52B75F00A84740825F0F8E6F5805E
:100A27008003758040D2AFD000D0D0D0F0D0E03274
:080CA7007F6C7E91DEFEDFFC94
:010CAF002222
:100B4F00120C3F7F81120C9CEF30E703120AC31285
:100B5F000C7A20B219E51945187018120CA720B29B
:100B6F00126320FF631FFFF5187519018005E4F567
:100B7F0018F51920B31FE51B451A701E120CA7207C
:100B8F00B31874042533F533E43532F532751A0092
:100B9F00751B018005E4F51AF51BE529B401B312A5
:100BAF0008F6782B7C007D007E007F071208D0E4CA
:040BBF00F529809EF6
:100A4300020B4FE493A3F8E493A34003F68001F26F
:100A530008DFF48029E493A3F85407240CC8C333B4
:100A6300C4540F4420C8834004F456800146F6DF83
:100A7300E4800B0102040810204080900BC3E47E45
:100A8300019360BCA3FF543F30E509541FFEE49378
:100A9300A360010ECF54C025E060A840B8E493A33F
:100AA300FAE493A3F8E493A3C8C582C8CAC583CA6A
:100AB300F0A3C8C582C8CAC583CADFE9DEE780BE22
:010BF60000FE
:10080000E709F608DFFA8046E709F208DFFA803EDA
:1008100088828C83E709F0A3DFFA8032E309F608C7
:10082000DFFA8078E309F208DFFA807088828C832F
:10083000E309F0A3DFFA806489828A83E0A3F608E3
:10084000DFFA805889828A83E0A3F208DFFA804CBD
:1008500080D280FA80C680D4806980F28033801094
:1008600080A680EA809A80A880DA80E280CA8033FD
:1008700089828A83ECFAE493A3C8C582C8CCC58375
:10088000CCF0A3C8C582C8CCC583CCDFE9DEE78045
:100890000D89828A83E493A3F608DFF9ECFAA9F0C4
:1008A000EDFB2289828A83ECFAE0A3C8C582C8CC1A
:1008B000C583CCF0A3C8C582C8CCC583CCDFEADE33
:1008C000E880DB89828A83E493A3F208DFF980CC95
:1008D00088F0EF60010E4E60C388F0ED2402B4048E
:1008E0000050B9F582EB2402B4040050AF23234535
:0608F00082239008507302
:100BF700EF7E0024D0B40A00401B24F9B40A004059
:100C070011B41000400F24E0B40A004005B41000EE
:070C1700400374FFFEFF2201
:00000001FF
