:03000000020A747D
:0C0A7400787FE4F6D8FD75815D020ABBB6
:090D2D0030393A34343A3436000E
:100BF800082D000102030405060710103F065B4F8D
:100C0800666D7D077F6F777C395E797102270001F9
:100C18000220000102220001025500081239000AD0
:100C28000014001E0028003C0050007800A000C8F6
:100C3800024C000002080000042900000000020C19
:100C48000000020A0000020E000002360000022521
:050C580000000138005E
:060C8500C296C295D29652
:100C8B00C2950000E4FEEF1392CC0000D295000059
:0A0C9B00C295EFC313FF0EBE08EC74
:010CA500222C
:100CC6000000E4FEEFC313FF30CC03430780D29548
:0A0CD6000000C29500000EBE08EAFF
:010CE00022F1
:0A0D0300120C85120CC6D295C296A0
:010D0D0022C3
:0D0CF600120C85AF05120C8BD295C2962210
:1009D3007F81120D03EF5470C4540F75F00AA4FE07
:1009E300EF540F2EF5577F83120D03EF5470C45449
:1009F3000F75F00AA4FEEF540F2EF5587F85120DE4
:100A030003EF5470C4540F75F00AA4FEEF540F2E75
:100A1300F5597F87120D03EF5470C4540F75F00A14
:100A2300A4FEEF540F2EF55A7F8B120D03EF547073
:100A3300C4540F75F00AA4FEEF540F2EF55B7F89A3
:100A4300120D03EF5470C4540F75F00AA4FEEF5453
:100A53000F2EF55C7F8D120D03EF5470C4540F7588
:100A6300F00AA4FEEF540F2EF55D7B007A00795750
:010A73002260
:100B0000900D2DE493FF120C5EEFC454F0FEC0066E
:100B1000900D2EE493FF120C5ED0E02FF557900D50
:100B200030E493FF120C5EEFC454F0FEC006900D4B
:100B300031E493FF120C5ED0E02FF558900D33E4B2
:100B400093FF120C5EEFC454F0FEC006900D34E427
:100B500093FF120C5ED0E02FFCE4FD7F8E120CF6AA
:100B6000AD047F80120CF6AD587F82120CF6AD57A3
:100B70007F84120CF67F81120D03EF547FF524FD64
:0C0B80007F80120CF67D807F8E020CF648
:100CE100E4FD7F8E120CF67DA97F90120CF67D80BB
:050CF1007F8E020CF6ED
:100CA60075B0EF7596FFE4F5957594FFF593C2A3BD
:100CB600758911D2AF758CFE758A0BD28CD2A9229A
:03000B00020D0ED5
:0B0D0E00758CFE758A0BC2AFD2AF32AD
:0A0D190000007F067E5DDEFEDFFCB9
:010D230022AD
:1008F600054B0526E5267002052564644525700727
:10090600F525F526753801E54BB55606E4B55502CD
:10091600F54BC2A3E4F580E528640145277034E56C
:100926004BC39408502D742D254BF8E6F5A0E54BE6
:1009360014601424FE601214601124FE600F14600B
:100946000E2407700C80568058805A805C805E802A
:10095600668074E52845277071E50B6401450A70C9
:10096600690537E53770020536B4D00EE536B407AB
:1009760009E4F536F537F50AF50BE54B5407F53579
:10098600242DF8E6F5A0E53514601624FE6016144D
:10099600601724FE601714601E2407702AE5508035
:1009A6000EE5508014E54F8006E54F800CE54E7548
:1009B600F00A842410800AE54E75F00A8474102526
:0D09C600F0F8E6F5808003758040020D1901
:080D24007F6C7E91DEFEDFFC16
:010D2C0022A4
:100B8C00120CA67F81120D03EF30E703120B00123B
:100B9C000CE11208F6E538B401131209D3784E7C37
:100BAC00007D007E007F071208D0E4F53820B225C6
:100BBC00E52145207024120D2420B21EE52845277E
:100BCC0070047F0180027F007527008F287520003C
:100BDC007521018005E4F520F521E528452770B243
:0C0BEC00D2A420A4ADF50A750B0180A670
:100A8000020B8CE493A3F8E493A34003F68001F2F5
:100A900008DFF48029E493A3F85407240CC8C33377
:100AA000C4540F4420C8834004F456800146F6DF46
:100AB000E4800B0102040810204080900BF8E47ED3
:100AC000019360BCA3FF543F30E509541FFEE4933B
:100AD000A360010ECF54C025E060A840B8E493A302
:100AE000FAE493A3F8E493A3C8C582C8CAC583CA2D
:100AF000F0A3C8C582C8CAC583CADFE9DEE780BEE5
:010C5D000096
:10080000E709F608DFFA8046E709F208DFFA803EDA
:1008100088828C83E709F0A3DFFA8032E309F608C7
:10082000DFFA8078E309F208DFFA807088828C832F
:10083000E309F0A3DFFA806489828A83E0A3F608E3
:10084000DFFA805889828A83E0A3F208DFFA804CBD
:1008500080D280FA80C680D4806980F28033801094
:1008600080A680EA809A80A880DA80E280CA8033FD
:1008700089828A83ECFAE493A3C8C582C8CCC58375
:10088000CCF0A3C8C582C8CCC583CCDFE9DEE78045
:100890000D89828A83E493A3F608DFF9ECFAA9F0C4
:1008A000EDFB2289828A83ECFAE0A3C8C582C8CC1A
:1008B000C583CCF0A3C8C582C8CCC583CCDFEADE33
:1008C000E880DB89828A83E493A3F208DFF980CC95
:1008D00088F0EF60010E4E60C388F0ED2402B4048E
:1008E0000050B9F582EB2402B4040050AF23234535
:0608F00082239008507302
:100C5E00EF7E0024D0B40A00401B24F9B40A0040F1
:100C6E0011B41000400F24E0B40A004005B4100087
:070C7E00400374FFFEFF229A
:00000001FF
